:020000040000FA
:020000001028C6
:020008000029CD
:10002000831607308100850186018312A0308B0082
:10003000C83090009100B2300130051485100511D0
:0E0040000610861006150000000000002328A0
:1002000005181B2985180F29900B2929C830900043
:100210000514851005110610861006152529900B6A
:100220002529FA309000C8300510851005150614F0
:10023000861006112529900B2529323090000510D3
:1002400085140511061086100615B23081000B11B9
:0C0250000900910B2529861406102529B1
:00000001FF
